:100000000C942A000C9447000C9447000C94470071
:100010000C9447000C9447000C9447000C94470044
:100020000C9447000C9447000C9447000C94470034
:100030000C9447000C94F2000C9447000C94470079
:100040000C9447000C9447000C9447000C94470014
:100050000C94470011241FBECFE5D8E0DEBFCDBF12
:1000600010E0A0E6B0E0E4EAFCE002C005900D92EA
:10007000A838B107D9F720E0A8E8B0E001C01D9288
:10008000A339B207E1F70E9403020C9450060C94C6
:10009000000097B1907E97B997B1982B97B9369A8F
:1000A0003699FECF85B190E0089510BC83E389B9FD
:1000B000549A539A80B5866880BD0895579A0895DA
:1000C0005F9BFECF8CB108951F93CF93DF93EC011C
:1000D00010E00E946000FE01E10FF11D1F5F8083B0
:1000E0008A30B9F7C10FD11D1882DF91CF911F91CE
:1000F00008955D9BFECF8CB90895CF93DF93EC01FB
:100100008991811105C08AE0DF91CF910C9479002B
:100110000E947900F5CFD09A0895D89A0895D8987A
:10012000089520919100309192002817390744F0EA
:1001300010929200109291008BB391E089278BBBB3
:1001400080919100909192000196909392008093FB
:1001500091000895EF92FF920F931F93CF93DF9337
:100160007C018B010115110599F0CE2DDF2D07C003
:100170008FEC97E00197F1F700C0000021972097DE
:10018000B9F780E090E00E94910001501109EACF98
:10019000DF91CF911F910F91FF90EF90089587B15C
:1001A000806A87B986B1826886B90895339A0895BE
:1001B0009FEF980F973010F40C94490080E090E086
:1001C00008959FEF980F973020F497B1892B87B946
:1001D000369A08950E948B000E9455000E945E008E
:1001E0000C94CF008F9381E0809390008F911895AD
:1001F000209189002F93209188002F9320918B00CC
:100200002F9320918A002F9320918D002F9320917E
:100210008C002F9320918F002F9320918E002F938D
:1002200020E630E03F932F939F938F930E946603C5
:100230008DB79EB70C960FB6F8949EBF0FBE8DBFBC
:1002400008952F923F924F925F926F927F928F927A
:100250009F92AF92BF92CF92DF92EF92FF920F9355
:100260001F93CF93DF93CDB7DEB768970FB6F8949F
:10027000DEBF0FBECDBF84E690E00E94910081E01A
:100280000E944900BC0184E0759567958A95E1F765
:10029000072E000C880B990B0E94DA0220E030E058
:1002A00040EF50E469837A838B839C8369817A81F0
:1002B0008B819C810E9435022B013C01C301B2015C
:1002C0000E94A2026F8B788F8F89988D90938F00F8
:1002D00080938E0082E00E944900BC0194E07595F5
:1002E00067959A95E1F7072E000C880B990B0E94F1
:1002F000DA0220E030E040EF50E44B015C01C50140
:10030000B4010E9435026B017C01C701B6010E9455
:10031000A20270938D0060938C0083E00E944900DC
:10032000BC0124E0759567952A95E1F7072E000C2E
:10033000880B990B0E94DA0220E030E040EF50E495
:100340006D837E838F8398876D817E818F81988571
:100350000E94350269877A878B879C8769857A85B1
:100360008B859C850E94A20270938B0060938A000B
:1003700084E00E944900BC0134E0759567953A9588
:10038000E1F7072E000C880B990B0E94DA0220E09F
:1003900030E040EF50E46D877E878F87988B6D85C6
:1003A0007E858F8598890E943502698B7A8B8B8B2D
:1003B0009C8B69897A898B899C890E94A2026D8BAA
:1003C0007E8B8D899E89909389008093880084E636
:1003D00090E068960FB6F894DEBF0FBECDBFDF91F8
:1003E000CF911F910F91FF90EF90DF90CF90BF9032
:1003F000AF909F908F907F906F905F904F903F90C5
:100400002F900C949100CDB7DEB764970FB6F89497
:10041000DEBF0FBECDBF0E94EA0078940E948D001F
:100420002FEF89E698E1215080409040E1F700C02D
:1004300000000E948F002FEF89E698E12150804054
:100440009040E1F700C000008EE690E00E947D0041
:1004500081E090E00E9491000E942101CE0101966E
:100460000E94F800CE010196F1CF5058BB27AA2771
:100470000E944D020C942C030E941E0338F00E942F
:10048000250320F039F49F3F19F426F40C941B0344
:100490000EF4E095E7FB0C941503E92F0E943D0351
:1004A00058F3BA17620773078407950720F079F4A9
:1004B000A6F50C945F030EF4E0950B2EBA2FA02D39
:1004C0000B01B90190010C01CA01A0011124FF2701
:1004D000591B99F0593F50F4503E68F11A16F040FC
:1004E000A22F232F342F4427585FF3CF46953795FB
:1004F0002795A795F0405395C9F77EF41F16BA0BC0
:10050000620B730B840BBAF09150A1F0FF0FBB1F6D
:10051000661F771F881FC2F70EC0BA0F621F731FB6
:10052000841F48F4879577956795B795F7959E3F13
:1005300008F0B0CF9395880F08F09927EE0F9795A4
:10054000879508950E94A9026894B1110C946003E4
:1005500008950E94450388F09F5798F0B92F992776
:10056000B751B0F0E1F0660F771F881F991F1AF09E
:10057000BA95C9F714C0B13091F00E945F03B1E0A1
:1005800008950C945F03672F782F8827B85F39F0A0
:10059000B93FCCF3869577956795B395D9F73EF437
:1005A00090958095709561957F4F8F4F9F4F0895DF
:1005B000E89409C097FB3EF49095809570956195FD
:1005C0007F4F8F4F9F4F9923A9F0F92F96E9BB27B3
:1005D0009395F695879577956795B795F111F8CF2F
:1005E000FAF4BB0F11F460FF1BC06F5F7F4F8F4F9A
:1005F0009F4F16C0882311F096E911C0772321F090
:100600009EE8872F762F05C0662371F096E8862F27
:1006100070E060E02AF09A95660F771F881FDAF77E
:10062000880F9695879597F9089597F99F6780E8C1
:1006300070E060E008959FEF80EC089500240A9434
:100640001616170618060906089500240A941216AD
:100650001306140605060895092E0394000C11F4E0
:10066000882352F0BB0F40F4BF2B11F460FF04C08D
:100670006F5F7F4F8F4F9F4F089557FD9058440FE6
:10068000551F59F05F3F71F04795880F97FB991FF1
:1006900061F09F3F79F087950895121613061406AE
:1006A000551FF2CF4695F1DF08C01616170618063B
:1006B000991FF1CF86957105610508940895E89416
:1006C000BB2766277727CB0197F90895AEE0B0E006
:1006D000ECE6F3E00C9427060D891E8986E08C83F6
:1006E0001A8309838FEF9FE79E838D83AE01475E58
:1006F0005F4F6F89788DCE0101960E9489032F810B
:100700003885020F131FF80110822E96E4E00C9436
:100710004306ABE0B0E0EFE8F3E00C941A066C019E
:100720007B018A01FC0117821682838181FFDAC175
:100730009AE0492EF6012381F70123FD859123FFDD
:1007400081917F01811509F41FC1853239F423FDA0
:10075000959123FF91917F01953229F4B60190E0A4
:100760000E948B05E7CF30E0612C512C712CF0E218
:100770007F1640F59B32D9F058F49032D1F0933285
:10078000F1F09E3299F576FCFFC0689476F806C0C9
:100790009D3291F09033C1F4689470F8F70123FD15
:1007A000959123FF91917F019111E1CF29C0689428
:1007B00071F8689472F8F2CF689473F8EFCF689488
:1007C00074F8ECCF77FC1CC080ED890F8A30C8F636
:1007D00076FE05C0649C800D1124682EDFCF549CEA
:1007E000800D1124582E689475F8D8CF9C3619F4D2
:1007F000689477F8D3CF9C3409F44BC0983671F2E3
:10080000892F8F7D8554833008F445C0933609F4D1
:1008100066C0933709F469C0933509F475C09436FE
:1008200019F0993609F09FC0F80177FE95C06191E3
:100830007191819191918F01272D2F76722E97FFC3
:1008400009C090958095709561957F4F8F4F9F4F10
:10085000689477F82AE030E0AE014F5F5F4F5A01AD
:100860000E94BB058A19A82E76FEC5C0872D8E7FF3
:10087000A61408F0BFC074FE12C172FC06C1F72DA9
:10088000FE7E7F2EB62C872D8678811509F4C0C098
:1008900001C131E083CF3115F9F0085F1F4F8FE3BD
:1008A000898388248394912CAE014F5F5F4F5A0156
:1008B000E89477F873FC03C085149104B0F18114B7
:1008C0009104D1F5511409F435CFB60180E290E0DE
:1008D0000E948B055A94F6CF0C5F1F4FE0CFF801B2
:1008E000808189830E5F1F4FDCCFF801A190B1900A
:1008F0008F01662D70E076FC02C06FEF7FEFC501BF
:100900000E9480054C01D4CFF801A190B1908F01D5
:10091000662D70E076FC02C06FEF7FEFC5010E948C
:1009200075054C01689477F8C5CFB60180E290E078
:100930000E948B055A94C0CFF50177FC859177FE14
:1009400081915F01B60190E00E948B0551105A948D
:10095000F1E08F1A9108B3CF61917191072E000CCD
:10096000880B990B68CF372CE89434F82AE030E0F4
:10097000953739F1572D597F352E903799F058F426
:100980009835A9F09F36D9F0F601868197812B968C
:10099000E1E10C9436069837B9F774FC05C020E104
:1009A00030E00FC0689434F8689432F8F8CF74FEE1
:1009B00003C0872D8660382E20E132E002C028E097
:1009C00030E0F80137FE11C06191719181919191F0
:1009D0008F01FE0131965F01AF010E94BB058A19AC
:1009E000A82E732CE89477F83FCF6191719180E045
:1009F00090E0EECF782EBA2C74FE45CFFE01EA0DC2
:100A0000F11D8081803309F043C0272D297E722E8D
:100A100073FC0EC070FE4FC06A2CB51418F4650C40
:100A20006B18B52C852D8B195B1408F480E0B80E7B
:100A3000B51408F042C05B1874FE41C0B60180E3F3
:100A400090E00E948B0572FE09C088E590E071FC81
:100A500002C088E790E0B6010E948B05A614D8F189
:100A6000AA94B12C4FEFA41AB40ACE0101963C010E
:100A7000A80EB91EF50182915F01B60190E00E94B7
:100A80008B056A147B04B1F71DCFB62C782EB6CF38
:100A900072FC02C0B394BCCFB394B394B9CFB62C5C
:100AA000782EF1CEB60180E290E00E948B0533945F
:100AB0003514C0F3B7CF3B2CFBCF512CBDCF872DC6
:100AC0008678811559F280E271FC8BE277FC8DE229
:100AD000B60190E0C1CFB60180E390E00E948B05A3
:100AE0006A94BCCF8FEF9FEF52CFFC01059061500D
:100AF00070400110D8F7809590958E0F9F1F089534
:100B0000FC016150704001900110D8F780959095DC
:100B10008E0F9F1F08950F931F93CF93DF93182F6E
:100B2000092FEB018B8181FD09C01FEF0FEF812F92
:100B3000902FDF91CF911F910F91089582FF14C0E4
:100B40002E813F818C819D81281739073CF4E881F3
:100B5000F981CF0101969983888310838E819F81CB
:100B600001969F838E83E3CFE885F985812F0995D0
:100B7000892BA1F3DACFFA01AA27283051F12031CD
:100B800081F1E8946F936E7F6E5F7F4F8F4F9F4F21
:100B9000AF4FB1E03ED0B4E03CD0670F781F891F63
:100BA0009A1FA11D680F791F8A1F911DA11D6A0F31
:100BB000711D811D911DA11D20D009F468943F91E4
:100BC0002AE0269F11243019305D3193DEF6CF01E3
:100BD0000895462F4770405D4193B3E00FD0C9F7A9
:100BE000F6CF462F4F70405D4A3318F0495D31FD16
:100BF0004052419302D0A9F7EACFB4E0A695979569
:100C0000879577956795BA95C9F70097610571053E
:100C100008959B01AC010A2E069457954795379588
:100C20002795BA95C9F7620F731F841F951FA01DE2
:100C300008952F923F924F925F926F927F928F9280
:100C40009F92AF92BF92CF92DF92EF92FF920F935B
:100C50001F93CF93DF93CDB7DEB7CA1BDB0B0FB665
:100C6000F894DEBF0FBECDBF09942A883988488822
:100C70005F846E847D848C849B84AA84B984C884B8
:100C8000DF80EE80FD800C811B81AA81B981CE0FAF
:100C9000D11D0FB6F894DEBF0FBECDBFED01089594
:040CA000F894FFCFF6
:100CA4006D20256420256420256420256400576177
:100CB4006974696E6720666F7220636F6E6669720D
:080CC4006D6174696F6E0000A0
:00000001FF
