:100000000C942A000C9447000C9447000C94470071
:100010000C9447000C9447000C9447000C94470044
:100020000C9447000C9447000C9447000C94470034
:100030000C9447000C94C6000C9447000C944700A5
:100040000C9447000C9447000C9447000C94470014
:100050000C94470011241FBECFE5D8E0DEBFCDBF12
:1000600010E0A0E6B0E0EAE9F8E002C005900D92E9
:10007000A838B107D9F720E0A8E8B0E001C01D9288
:10008000A339B207E1F70E94F5000C944B040C94DD
:10009000000010BC83E389B9549A539A80B58668EE
:1000A00080BD0895579A08955F9BFECF8CB1089547
:1000B0001F93CF93DF93EC0110E00E945400FE01E8
:1000C000E10FF11D1F5F80838A30B9F7C10FD11D89
:1000D0001882DF91CF911F9108955D9BFECF8CB95F
:1000E0000895CF93DF93EC018991811105C08AE0D7
:1000F000DF91CF910C946D000E946D00F5CFD09AE6
:1001000008952091910030919200281739073CF012
:100110001092920010929100D89B0BC0D8988091B9
:10012000910090919200019690939200809391009B
:100130000895D89AF4CFEF92FF920F931F93CF9325
:10014000DF937C018B010115110599F0CE2DDF2D78
:1001500007C08FEC97E00197F1F700C000002197EE
:100160002097B9F780E090E00E94810001501109CA
:10017000EACFDF91CF911F910F91FF90EF900895FB
:100180000E947F000E9449000C9452008F9381E0EE
:10019000809390008F911895209189002F93209142
:1001A00088002F9320918B002F9320918A002F930A
:1001B00020918D002F9320918C002F9320918F0000
:1001C0002F9320918E002F9320E630E03F932F93C2
:1001D0009F938F930E9461018DB79EB70C960FB6C7
:1001E000F8949EBF0FBE8DBF0895CDB7DEB764975C
:1001F0000FB6F894DEBF0FBECDBF0E94C00078944A
:1002000080E090E00E9481002FEF89E698E1215084
:1002100080409040E1F700C0000080E090E00E9444
:1002200081008EE690E00E9471008091900081151F
:10023000D1F182E090E090938F0080938E008FEF59
:100240009FEF90938D0080938C0083E090E09093DB
:100250008B0080938A0088E090E0909389008093DF
:1002600088002FEF82E597E0215080409040E1F731
:1002700000C0000080E090E00E948100809190002A
:10028000811579F3109290006FE070E08AE090E0C1
:100290000E949B00CE0101960E94CC00CE010196E7
:1002A0000E947100DECF81E090E00E9481002FEF7C
:1002B00086E791E0215080409040E1F700C00000C7
:1002C000B4CFAEE0B0E0E7E6F1E00C9422040D8993
:1002D0001E8986E08C831A8309838FEF9FE79E83B4
:1002E0008D83AE01475E5F4F6F89788DCE01019699
:1002F0000E9484012F813885020F131FF80110829C
:100300002E96E4E00C943E04ABE0B0E0EAE8F1E0C5
:100310000C9415046C017B018A01FC011782168282
:10032000838181FFDAC19AE0492EF6012381F7012A
:1003300023FD859123FF81917F01811509F41FC160
:10034000853239F423FD959123FF91917F019532F8
:1003500029F4B60190E00E948603E7CF30E0612CDB
:10036000512C712CF0E27F1640F59B32D9F058F4F5
:100370009032D1F09332F1F09E3299F576FCFFC0C5
:10038000689476F806C09D3291F09033C1F4689479
:1003900070F8F70123FD959123FF91917F01911151
:1003A000E1CF29C0689471F8689472F8F2CF68942C
:1003B00073F8EFCF689474F8ECCF77FC1CC080ED35
:1003C000890F8A30C8F676FE05C0649C800D112422
:1003D000682EDFCF549C800D1124582E689475F838
:1003E000D8CF9C3619F4689477F8D3CF9C3409F4AD
:1003F0004BC0983671F2892F8F7D8554833008F475
:1004000045C0933609F466C0933709F469C0933543
:1004100009F475C0943619F0993609F09FC0F801B7
:1004200077FE95C061917191819191918F01272DF6
:100430002F76722E97FF09C09095809570956195E3
:100440007F4F8F4F9F4F689477F82AE030E0AE01DE
:100450004F5F5F4F5A010E94B6038A19A82E76FE9D
:10046000C5C0872D8E7FA61408F0BFC074FE12C1D0
:1004700072FC06C1F72DFE7E7F2EB62C872D867866
:10048000811509F4C0C001C131E083CF3115F9F005
:10049000085F1F4F8FE3898388248394912CAE01DA
:1004A0004F5F5F4F5A01E89477F873FC03C08514DF
:1004B0009104B0F181149104D1F5511409F435CFB0
:1004C000B60180E290E00E9486035A94F6CF0C5F5A
:1004D0001F4FE0CFF801808189830E5F1F4FDCCF73
:1004E000F801A190B1908F01662D70E076FC02C0FA
:1004F0006FEF7FEFC5010E947B034C01D4CFF80161
:10050000A190B1908F01662D70E076FC02C06FEF74
:100510007FEFC5010E9470034C01689477F8C5CF46
:10052000B60180E290E00E9486035A94C0CFF501A4
:1005300077FC859177FE81915F01B60190E00E9482
:10054000860351105A94F1E08F1A9108B3CF61914C
:100550007191072E000C880B990B68CF372CE8940B
:1005600034F82AE030E0953739F1572D597F352E90
:10057000903799F058F49835A9F09F36D9F0F601E4
:10058000868197812B96E1E10C9431049837B9F775
:1005900074FC05C020E130E00FC0689434F8689422
:1005A00032F8F8CF74FE03C0872D8660382E20E124
:1005B00032E002C028E030E0F80137FE11C061915E
:1005C0007191819191918F01FE0131965F01AF018F
:1005D0000E94B6038A19A82E732CE89477F83FCFAF
:1005E0006191719180E090E0EECF782EBA2C74FE8C
:1005F00045CFFE01EA0DF11D8081803309F043C033
:10060000272D297E722E73FC0EC070FE4FC06A2CFF
:10061000B51418F4650C6B18B52C852D8B195B146B
:1006200008F480E0B80EB51408F042C05B1874FE00
:1006300041C0B60180E390E00E94860372FE09C0CB
:1006400088E590E071FC02C088E790E0B6010E9466
:100650008603A614D8F1AA94B12C4FEFA41AB40AB9
:10066000CE0101963C01A80EB91EF50182915F01F1
:10067000B60190E00E9486036A147B04B1F71DCF97
:10068000B62C782EB6CF72FC02C0B394BCCFB39414
:10069000B394B9CFB62C782EF1CEB60180E290E0BB
:1006A0000E94860333943514C0F3B7CF3B2CFBCFA5
:1006B000512CBDCF872D8678811559F280E271FCCF
:1006C0008BE277FC8DE2B60190E0C1CFB60180E30A
:1006D00090E00E9486036A94BCCF8FEF9FEF52CFC9
:1006E000FC010590615070400110D8F780959095FD
:1006F0008E0F9F1F0895FC01615070400190011002
:10070000D8F7809590958E0F9F1F08950F931F9394
:10071000CF93DF93182F092FEB018B8181FD09C047
:100720001FEF0FEF812F902FDF91CF911F910F912E
:10073000089582FF14C02E813F818C819D812817EE
:1007400039073CF4E881F981CF01019699838883C8
:1007500010838E819F8101969F838E83E3CFE885EE
:10076000F985812F0995892BA1F3DACFFA01AA2700
:10077000283051F1203181F1E8946F936E7F6E5FE4
:100780007F4F8F4F9F4FAF4FB1E03ED0B4E03CD092
:10079000670F781F891F9A1FA11D680F791F8A1F75
:1007A000911DA11D6A0F711D811D911DA11D20D0DC
:1007B00009F468943F912AE0269F11243019305D96
:1007C0003193DEF6CF010895462F4770405D419387
:1007D000B3E00FD0C9F7F6CF462F4F70405D4A33D4
:1007E00018F0495D31FD4052419302D0A9F7EACF9C
:1007F000B4E0A6959795879577956795BA95C9F7CB
:1008000000976105710508959B01AC010A2E0694BD
:100810005795479537952795BA95C9F7620F731F76
:10082000841F951FA01D08952F923F924F925F92B3
:100830006F927F928F929F92AF92BF92CF92DF92F0
:10084000EF92FF920F931F93CF93DF93CDB7DEB755
:10085000CA1BDB0B0FB6F894DEBF0FBECDBF0994E9
:100860002A88398848885F846E847D848C849B8440
:10087000AA84B984C884DF80EE80FD800C811B814E
:10088000AA81B981CE0FD11D0FB6F894DEBF0FBE7D
:0A089000CDBFED010895F894FFCFED
:10089A006D20256420256420256420256400576185
:1008AA006974696E6720666F7220636F6E6669721B
:0808BA006D6174696F6E0000AE
:00000001FF
