:100000000C942A000C9447000C9447000C94470071
:100010000C9447000C9447000C9447000C94470044
:100020000C9447000C9447000C9447000C94470034
:100030000C9447000C9447000C9447000C94470024
:100040000C9447000C9447000C9447000C94470014
:100050000C94470011241FBECFE5D8E0DEBFCDBF12
:1000600010E0A0E6B0E0E2EBF1E002C005900D92F6
:10007000A636B107D9F720E0A6E6B0E001C01D9290
:10008000A836B207E1F70E94C0000C94D7000C9488
:10009000000010BC83E389B9549A539A80B58668EE
:1000A00080BD0895579A08955F9BFECF8CB1089547
:1000B0001F93CF93DF93EC0110E00E945400FE01E8
:1000C000E10FF11D1F5F80838A30B9F7C10FD11D89
:1000D0001882DF91CF911F9108955D9BFECF8CB95F
:1000E0000895CF93DF93EC018991811105C08AE0D7
:1000F000DF91CF910C946D000E946D00F5CFD09AE6
:1001000008952091660030916700281739073CF068
:100110001092670010926600D89B0BC0D89880910F
:100120006600909167000196909367008093660047
:100130000895D89AF4CFEF92FF920F931F93CF9325
:10014000DF937C018B010115110599F0CE2DDF2D78
:1001500007C08FEC97E00197F1F700C000002197EE
:100160002097B9F780E090E00E94810001501109CA
:10017000EACFDF91CF911F910F91FF90EF900895FB
:100180000E947F000E944900789480E690E00E94DF
:10019000710080E090E00E9481002FEF84E39CE0FA
:1001A000215080409040E1F700C00000EECFF8946D
:0201B000FFCF7F
:0601B20048656C6C6F0053
:00000001FF
